S12300009004002091050000D9050000DD050000E1050000E5050000E90500000000000014
S12300200000000000000000A8050000ED050000F105000000000000F5050000F90500002F
S12300406849694A01E021B1491E1369DB07FAD401B9BAE0506001201060106910F0060FCF
S123006005D0410700D5B3E0800700D5B3E000207047F0B513460022002936D0594C5A4D96
S12300808BB98B4231D250F8046BEE605B1C08262E60264601E036B3761E2F69FF07FAD4DA
S12300A0002EEED11FE0EFF3108672B600230EE02F6907F01907102F08BF2F602F693F077D
S12300C0F6D550F8047BEF605B1C10272F608B42F4D306B962B6264601E026B1761E28694A
S12300E0C007FAD40EB96FF002021046F0BD2DE9F84F3B4F0D4639680446002041F00101C2
S12301009B4639604FEA92088146AA4602E0B1440AEB860AC14517D204EB89063046FFF7A2
S12301208FFF010022D1C6F30A00C0F500608608A8EB0900B04238BF06465A463146504655
S1230140FFF797FF0100E2D021682A68914209D02046FFF775FF010004D15A4601212846BF
S1230160FFF787FF3968490849003960BDE8F28F1B491C4A0B6843F001030B60886001201D
S123018048604869400704D508684008400008601EE04869800704D5086840084000086013
S12301A019E00220486001E022B1521E4869C007FAD422B9086840084000086005E008687E
S12301C0400840000860002070476FF0020070474FF0FF3070476FF001007047002386E770
S12301E008000E40809698000C000E40084841F67131816301684908490001607047044829
S12302000168490849000160002181637047000008000E4010B50446FFF7E8FF2046FFF71C
S1230220A7FF0446FFF7EBFF601E8041C00F10BD10B58408800782B005D5080440F47F402C
S123024040F0FF0003E041F07F4040F47F000090FFF7CCFF04226946A000FFF7BFFF044621
S1230260FFF7CDFF204616BD2DE9F04104460E46154604F0010005F00101084327D125B338
S1230280A00708D536F8021B2046FFF7D1FFF0B9A41CAD1E19D0AF08FFF7A8FFBF003A46AF
S12302A031462046FFF79AFF8046FFF7A8FF3C197808B8F1000F06EB400608D1E81B04D0F7
S12302C031882046FFF7B4FF08B9012000E00020BDE8F08170B5282001680869CC68826AF3
S12302E0A24222D304F560518A421ED2111B4518224A2968914218D1E968214E4FF0FF3249
S123030000F052F8B04210D140F628000068AA688168914207D3C1684FF0FF32204600F06F
S123032043F8B04201D0012070BD002070BDF8B5282000680569C468A86A001B2E18274649
S123034004E03846FFF766FF07F50067F26810198742F6D329462046FFF786FF40F62800B6
S12303604FF0FF320068C168204600F01DF80449884201D00020F2BD0120F2BD07B0CD5EA4
S1230380E320BBDE0A0A484000F0FF0008214308C00746BF034858401846491EF7D15040F2
S12303A0704700002083B8ED70B504460D461046002604E00146A05DFFF7E4FF761CAE4279
S12303C0F8D370BD1548164900680860FFF7AFFF0028FBD040F2022000F028F800BF80B5A6
S12303E000F044F80F490968B1F5803F0AD040F20921884218BFB0F5007F03D1FFF76AFF71
S123040000B101BD08494FF400600860016881F3088881F3098840688047FEE7880000209F
S12304208C00002004500E4008ED00E04FF0005108804FF20F0048800948016821F4E06155
S123044041F480610160BFF34F8F0648064A016801F4E06111430160BFF34F8F00BFFDE76C
S123046000500E400CED00E00400FA054FF000504FF20F024188914201D100887047002947
S123048004BF0088012802D140F2022070474FF4007070470B48016841F4700101600A4887
S12304A0416941F4005141610168890889000160416B490849004163016A21F080510162E8
S12304C07047000088ED00E040300E4010B450F8041B79B10268436802440830DC0744BF80
S12304E0A9F10104E31852F8044B43F8044B091FF9D1ECE710BC704710B5074979441831D8
S1230500064C7C44163404E00A68081D114488470146A142F8D110BD2C0000003C000000B4
S12305204EF68851CEF20001086840F470000860BFF34F8FBFF36F8F4FF00070E1EE100A85
S12305407047000089FFFFFF100000007000000080000020000000000120C046002801D01A
S1230560FFF7CAFF0020AFF30080FFF72BFF00F000F800F001B800000746384600F002F810
S1230580FBE700002021090326311820ABBEF9E70248804702488047024800479504000004
S12305A0DF030000CD050000AD1007B00100000000000401000800000080000000F0490246
S12305C000800000C0EA2101C0EA2101AFF30080FFF7A6FFFFF7C0FFFFF7FEBFFFF7FEBF27
S12305E0FFF7FEBFFFF7FEBFFFF7FEBFFFF7FEBFFFF7FEBFFFF7FEBFFFF7FEBFFFFFFFFF16
S1230600FFFFFFFFFFFFFFFFFFFFFFFFFFFFFFFFFFFFFFFFFFFFFFFFFFFFFFFFFFFFFFFFF6
S1230620FFFFFFFFFFFFFFFFFFFFFFFFFFFFFFFFFFFFFFFFFFFFFFFFFFFFFFFFFFFFFFFFD6
S1230640FFFFFFFFFFFFFFFFFFFFFFFFFFFFFFFFFFFFFFFFFFFFFFFFFFFFFFFFFFFFFFFFB6
S1230660FFFFFFFFFFFFFFFFFFFFFFFFFFFFFFFFFFFFFFFFFFFFFFFFFFFFFFFFFFFFFFFF96
S1230680FFFFFFFFFFFFFFFFFFFFFFFFFFFFFFFFFFFFFFFFFFFFFFFFFFFFFFFFFFFFFFFF76
S12306A0FFFFFFFFFFFFFFFFFFFFFFFFFFFFFFFFFFFFFFFFFFFFFFFFFFFFFFFFFFFFFFFF56
S12306C0FFFFFFFFFFFFFFFFFFFFFFFFFFFFFFFFFFFFFFFFFFFFFFFFFFFFFFFFFFFFFFFF36
S12306E0FFFFFFFFFFFFFFFFFFFFFFFFFFFFFFFFFFFFFFFFFFFFFFFFFFFFFFFFFFFFFFFF16
S1230700FFFFFFFFFFFFFFFFFFFFFFFFFFFFFFFFFFFFFFFFFFFFFFFFFFFFFFFFFFFFFFFFF5
S1230720FFFFFFFFFFFFFFFFFFFFFFFFFFFFFFFFFFFFFFFFFFFFFFFFFFFFFFFFFFFFFFFFD5
S1230740FFFFFFFFFFFFFFFFFFFFFFFFFFFFFFFFFFFFFFFFFFFFFFFFFFFFFFFFFFFFFFFFB5
S1230760FFFFFFFFFFFFFFFFFFFFFFFFFFFFFFFFFFFFFFFFFFFFFFFFFFFFFFFFFFFFFFFF95
S1230780FFFFFFFFFFFFFFFFFFFFFFFFFFFFFFFFFFFFFFFFFFFFFFFFFFFFFFFFFFFFFFFF75
S12307A0FFFFFFFFFFFFFFFFFFFFFFFFFFFFFFFFFFFFFFFFFFFFFFFFFFFFFFFFFFFFFFFF55
S12307C0FFFFFFFFFFFFFFFFFFFFFFFFFFFFFFFFFFFFFFFFFFFFFFFFFFFFFFFFFFFFFFFF35
S12307E0FFFFFFFFFFFFFFFFFFFFFFFFFFFFFFFFFFFFFFFFFFFFFFFFFFFFFFFFFFFFFFFF15
S12308009010002095390000770B00009D0B00000B160000A71B00003F35000000000000C5
S12308200000000000000000400800004B360000C738000000000000233900003F39000018
S123084007B0CD5E0100000002000401FC3100000040000000000400F0000100A90D000092
S1230860AD0D0000F50E0000F12600001F27000090080000495332354C513032304200004E
S123088000000000010000000000000000000800000100000D160000651600008F16000007
S12308A0AD160000F1160000CF140000C9130000A7150000111700003D1700009D170000BF
S12308C0AD110000C911000007120000C11200000A0A484000F0FF0008214308C00746BFC5
S12308E0034858401846491EF7D15040704700002083B8ED70B504460D461046002604E0D3
S12309000146A05DFFF7E4FF761CAE42F8D370BD82B000EB40000021CDE90001DDE9000140
S1230920421E61F10003CDE9002300229142F5D19042F3D102B0704780B50121394800F0A3
S123094095F80121384800F091F8002304220F21032000F0CAF8002302220E21032000F014
S1230960C4F8002304220D21032000F0BEF8012304220B21012000F0B8F82C4840F6AA618B
S1230980C16000218160C1642949816440F20141016041F2050141604FF41061416110217E
S12309A0C1600B214167234981670521C16001BD01461CE038B504461C4D2102090E00F0D8
S12309C012F82104090E00F00EF800F00BF8284600F0BEF8284600F0BBF82846BDE832403A
S12309E000F0B6B8E1B2284600F0C0B8FF210F4800F0B2B838B50D4CFF21204600F0B6F8F1
S1230A00FF21204600F0B2F8204600F0A1F80546204600F09DF840EA052032BD064911E00F
S1230A2000000000002508000032040000040140F9FF0100151700133CA00044004901E088
S1230A403CA000464FF4006008607047890001EB401000F1844002607047DFF874104A680E
S1230A60D20702D40A680242FCD1704770B5020A0C4602F00F020021521E092ADFF85450C4
S1230A8014D8DFE802F005141313071619131C20DFF83850C0F3043611B10846FFF7DDFFBB
S1230AA0224631462846BDE87040CFE770BD1035F0E730350121EDE738351021EAE7403552
S1230AC04FF48031E6E7DFF81050E3E700400E4040410E40B0400E4050410E40890001EB61
S1230AE0401000F1844002607047F8B515460C463022164950430F1828001E4605D0324636
S1230B00214607F10C00FFF7E9FF0F21082C05D2A2007B6800F012F8786006E0A4F1080271
S1230B209200BB6800F00AF8B86035B93246214607F10C00BDE8F840D0E7F1BD914023EA01
S1230B40010105FA02F008437047000000A0004001690906FCD506E002695206FCD5416354
S1230B6001698906FCD5C069C0B2704702695206FCD541637047FEE740F628000068006952
S1230B8070472820044A00680168914201D100697047002070470000AD1007B04FF401706F
S1230BA000F0B2F800BF474847490068086082B046480068040E684600F0DCF88F2C10DA98
S1230BC04348444C016841F0040202604FF05013002230255543521C6351062AF9D30160C4
S1230BE001E0902C06DA3C480168C909C90141F0200101609DF80100012804D137480168BC
S1230C0041F00401016000203549086000F0CCF800F075F800F0CEF810B940F201200FE061
S1230C20304901E00099491E009100990129F9DA40F20541884214BF4FF4017040F2032011
S1230C4000F062F800BF000038B52748016801240125B1F5803F08BF00250FD0006840059A
S1230C600CD500F073F840F20221401A04D0C01E02D0C01E012801D80024002544F204009E
S1230C80006810F1010F06D1BDE832404FF4027000F02EB831BD2DB14FF4804000F02AF97C
S1230CA00400F1D0002CF5D010494FF48040086002461046016881F3088881F309884068FE
S1230CC08746FEE7880000208C000020FC81E00FB0400E4000A000402C400E4064310E40E3
S1230CE0B40AC64300350C0004500E4008ED00E04FF0005108804FF20F00488070470F4932
S1230D004CF23C30088070474FF0005108804FF20F0048800A48016821F4E06141F480618F
S1230D200160BFF34F8F0748074A016801F4E06111430160BFF34F8F00BFFDE70200002075
S1230D4000500E400CED00E00400FA054FF000504FF20F024188914201D10088704700295E
S1230D6004BF0088012802D140F2022070474FF4007070470B494A680B68920002F03C0278
S1230D80C3F381131A4382700A6802F03F0242708A68C96802F0F002C1F3031111430170CB
S1230DA070470000E0FF0FE000F0D5B900F0EDBA0020704700B50FF280010A68DFB06846D8
S1230DC00121026000F000FB98BB009810F1010F2DD04FF4BC7201A900F09AFC002101A83C
S1230DE000F0ACFC40F201218842F7D040F2032188421CD19DF805009DF8041079B1B0B197
S1230E0040F62800006802998068884208D25B9800F02FFD58B140F20920FFF775FF30B123
S1230E2004995B9800F038FD08B1002001E040F205405FB000BD0000FFFFFFFF2DE9F041B9
S1230E40044640F6280088460068016916468C4222BF37194069B84216D3E00AB4EBC020F6
S1230E6004BF204600F064FD04F50060C50AED0204E0284600F05CFD05F50065BD42F8D319
S1230E8032464146204631E0BDE8F0812DE9F0418846282115460968394B0A689A4223D1D2
S1230EA00969461840F62801AF1909684A69BA421AD310B9086900F03BFDF00AB6EBC0204D
S1230EC004BF304600F034FD06F50060C40AE40204E0204600F02CFD04F50064BC42F8D31C
S1230EE02A464146304601E0BDE8F081BDE8F04100F048BD50B585B0044668460FF200117B
S1230F00102200F085FD22686068616B02F16042B2F5F84F2AD840F628021268126990425F
S1230F2024D3184B984221D202F1400081420E4601D3994205D30020C046401E8041C00FA1
S1230F401BE00020C04698B900F054F8A0B9706990B102280CD1B069001D011B4FF0FF32A3
S1230F602046FFF7C7FC0849884205D0002004E0204600F00BF800E0012005B050BD00003E
S1230F80AD1007B001000400E320BBDE50B59FB0044668460FF27801102200F039FD666B49
S1230FA000F028F818B9706901280BD1B66940F6280000680069864228BFA64202D3B6F509
S1230FC0802F01D9002013E004A800F04CFD321B214604A800F051FD04A800F050FD06F10E
S1230FE02002314604A800F04DFD401E8041C00F1FB050BD10226946304600F079BD000027
S123100013B779FAC925DDB7ADF3CFE0F1B614B813B779FAC925DDB7ADF3CFE0F1B614B8CA
S123102080B5FFF7FBFC0620FFF7C2FCBDE80140FFF704BD38B5FFF7F1FC9F20FFF7B8FCDA
S1231040FFF7D4FC0446FFF7D5FC0546FFF7F6FC012C1CBF1F2C202C07D09D2C04BF44F24A
S12310601200854201D1152032BD002032BD80B500F09CF80028FBD1FFF7DCFF152802D100
S12310800FF2283002BD002002BD000010B5044600F08CF80028FBD114B9FFF7CBFF05E06C
S12310A02078010002D1FFF7C5FF2070401E152824D8DFE800F01A141A14171A1A1D1D2027
S12310C0171A1714171A1D0B0E1114174FF4004010BD4FF4803010BD4FF4003010BD4FF47A
S12310E0802010BD4FF4002010BD4FF4801010BD4FF4001010BD4FF4000010BD002010BD92
S123110010B50C18B4F5802F01D8012010BD1046FFF7BCFFA0428041C043C00F10BD10B5B5
S12311200C46FFF745FC2046BDE81040FFF742BC38B504460D4600F039F80028FBD1FFF73E
S12311406FFFFFF76BFC29462046FFF7E8FFBDE83140FFF773BC10B5FFF7EEFB00F0F9FC4A
S123116042F210742046FFF7D3FBFFF757FCAB20FFF71EFCFFF762FC2046FFF7C9FBFFF7FB
S123118059FF10B940F2011010BD0B3802280BD2FFF746FFFFF742FC0120FFF709FC002025
S12311A0FFF706FCFFF74AFC002010BD10B5FFF735FC0520FFF7FCFBFFF718FC0446FFF7C2
S12311C03DFC04F0010010BD70B50D4600F073F810B940F2024070BDFFF7E8FF0028FBD102
S12311E0FFF71CFC21460320FFF799FF03E0FFF7FDFB05F8010B3046461E0028F7D1FFF72B
S12312001DFC002070BD2DE9F84F894600F053F810B940F202402BE03746FFF7C7FF002854
S1231220FBD1FFF7FBFB21460320FFF778FF3846471E30B1FFF7DAFBFF28F8D040F2034008
S123124016E0FFF7FBFB200640F201174FF4807809D0200A000200F580703119814204D32F
S1231260051BADB202E0BE4204D235461EB90020BDE8F28F4546AB46CA46FFF797FF00285B
S1231280FBD1FFF7CDFEFFF7C9FB21460220FFF746FF03E01AF8010BFFF78AFB5FEA0B006F
S12312A0ABF1010BF6D1FFF7C9FB761B2C19BE42A944DFD2D9E716460446002231461FE788
S12312C02DE9F843044600208DF800000D466846FFF7DCFE9DF800108046A1F10E0240F6B6
S12312E0FF764FF6FF70042A4FF48037814638BF064607D3A1F1120002283CBF4FF4004762
S123130047F6FF7935420CBF344240F204403AD16A4629462046FFF7F3FE10B940F2024032
S123132031E0BCB9454515D1FFF740FF0028FBD1FFF776FEFFF772FBC720FFF739FBFFF7B6
S12313407DFB1FE021462020FFF7F2FE04F58054A5F58055002D18BF14EA090FF2D1BD426D
S12313600ED32146D820FFF7E3FE3C19ED1BF6E721462020FFF7DCFE04F58054A5F5805565
S1231380002DF5D10020BDE8F28380B5FFF70EFF0028FBD1FFF742FBB920FFF709FBFFF7F4
S12313A04DFB00F0DCFB002002BD0000010203009A0100000008000000100000000004007E
S12313C074080000010000002DE9F04399B000F0E4F86846142100F0E3FB684600F016F9D0
S12313E0039802284FF0FF3809D2002020600120A8423CBF44F82080401CF9D35CE0A84203
S123140038BF40F2045058D3FFF7D2FC07460498C068C6190C2205A93846FFF7D5FE002821
S12314204BD10598DFF8609148451FD00C2205A93046FFF7C9FE00283FD10598484507D063
S12314400020A8423CBF44F82080401CF9D31DE0079A05A93046FFF7B7FE00F099F860BB76
S1231460079A05A93846FFF7CEFE30BB079A05A93846FFF7A9FE0799424605A8FFF73AFA85
S12314804249884205D0002000F01AF840F2055013E0079810388008A84288BF2846002153
S12314A006E005AA02EB8102D26844F82120491C8142F6D300F004F8002019B0BDE8F0838E
S12314C002E044F82080401CA842FAD37047F0B599B000F062F82C48059014210120069053
S12314E050200790684600F05BFB684600F08EF80398A84207D302280AD22068002818BFDD
S123150010F1010F02D040F204503AE0002038E00020C04606460498C0688719112D28BF11
S12315201025002006E005AA54F8201002EB8002401CD160A842F6D34FF0FF3004E005A992
S123154001EB85016D1CC860102DF8D302464C2105A8FFF7CFF9C043189000F019F880B957
S1231560502205A93846FFF74EFE50B90498C1683046FFF7A5FE20B9502205A93046FFF745
S123158042FE19B0F0BD000039528FE1E320BBDE0498C1683846FFF793BE04460D4605A826
S12315A0502100F0FDBA30B595B004466846142100F0F6FA684600F029F8039D022D20D357
S12315C0294605A8FFF700FF00281CBF40F20551884218D1002005A900E0401CA84210D2E2
S12315E051F8202012F1010F06D141F82040294605A8FFF76CFF06E0A242EED140F2035050
S123160001E040F2025015B030BDFEE710B504000CD04FF480302060002060603B480178D6
S123162021724068E060FFF722FD206110BD70B504464FF4B47026180D46A2B0B16830685E
S1231640802301AA00F023F80095802301AA214604F1240000F036FCF060B0688030B06080
S123166022B070BD10B540F2014231B1274B5C68A04204D3002008604860104610BD03EB1B
S1231680C00082680A60C0684860002010BD38B500F021F800D325E000F017F800D224E0D2
S12316A080682018BDE83840FFF78EBD38B500F012F800D316E000F008F800D215E0806859
S12316C02018BDE83840FFF79EBD03EBC0001519C368AB4270470C4611461A460B4B5D6891
S12316E0A842704740F2014032BD40F2024032BD06494A68904202D340F20140704701EBC2
S1231700C000C1688068FFF7DBBD00008008000030B504460D4683B01146284600F0E8FF8D
S123172058B969462046FFF79DFF30B94FF4B470284404600199416000203EBD7FB50446F9
S12317400D460FF284100FC86E4686E80F0002954FF4B6702518A86888B9686829688842DC
S12317600DD269462046FFF762FFA86800281CBF41F2070188420CD140F2012009E0A01C2D
S1231780017800291DBF4078002840F2032040F2022004B070BD012018707047F0B585B023
S12317A0044600208DF800000D4616460FF228100FC801AF87E80F00CDF804D00020306000
S12317C01C21284600F0ECF94FF4B670271803E001A92046FFF72BFF9DF8000048B994F8A8
S12317E06A00112805D0B86818B9786839688842EED3207808B160683060607828B11C22D8
S123180004F10801284600F003F99DF80000002804BF6078002801D1207808B1002001E0C8
S123182040F2064005B0F0BD70B504460D46202304F1FC0204F1B40104F1240000F0FEFA27
S12318404FF4B670261803E029462046FFF7EFFEB06818B9706831688842F5D3A01C017821
S123186000291CBF4078002801D0012070BD002070BD10B540F62802E2B0126892688A421D
S123188002D200F016F808B1002003E00FF2580000F013F862B010BD10B5E2B000F009F83B
S12318A008B1002003E00FF2500000F006F862B010BD4FF4BC7204A92AE70FC86C4684E826
S12318C00F00694604A8AFE700000000000000000000000000000000000000009717000056
S12318E097170000971700000000000000000000000000008D0E0000000000003D0E0000A2
S12319000000000000000000084841F6713181630168490849000160704704480168490895
S123192049000160002181637047000008000E4010B50446FFF7E8FF204600F0A7FF0446B5
S1231940FFF7EBFF601E8041C00F10BD10B58408800782B005D5080440F47F4040F0FF00B6
S123196003E041F07F4040F47F000090FFF7CCFF04226946A00000F0BFFF0446FFF7CDFF5D
S1231980204616BD2DE9F04104460E46154604F0010005F00101084327D125B3A00708D53F
S12319A036F8021B2046FFF7D1FFF0B9A41CAD1E19D0AF08FFF7A8FFBF003A46314620461F
S12319C000F09AFF8046FFF7A8FF3C197808B8F1000F06EB400608D1E81B04D03188204684
S12319E0FFF7B4FF08B9012000E00020BDE8F08162B38B0708D0521E11F8013B00F8013BDA
S1231A0000F024808B07F6D1830740F0208000BF103A07D330B4B1E83810103AA0E83810B9
S1231A20F9D230BC530724BFB1E80810A0E8081044BF51F8043B40F8043BD20724BF31F876
S1231A40022B20F8022B44BF0B7803707047083A07D3B1E80810083A40F8043B40F804CBD3
S1231A60F7D25307E4E710B5044600F0E9FF2046BDE81040002100F0E9BF00F0FDBF014686
S1231A8001F01EB870B504000D4618BF002DA2B0164600D016B940F2016023E0012112489C
S1231AA0FEF7E4FF402111A800F07AF801F0B4F8014611A801F0A4FB01F0B0F8014619A800
S1231AC001F09EFB294601A801F09AFB314609A801F096FB01A8009011AB20222146034847
S1231AE001F09DFB22B070BD0015080000000F400300002013F0030F09D0521E22BF13F881
S1231B00010B11F801CBB0EB0C00F3D07047121F22BF53F8040B51F804CB6045F7D0121DA0
S1231B200AD200BA9CFA8CFCB0EB0C0038BF6FF0000088BF01207047521E22BF13F8010B69
S1231B4011F801CBB0EB0C00F6D0521C08BF104670470123042203210520FEF7C6BF80B5BB
S1231B600023002203210520FEF7BFFF002300220B210120FEF7B9FF002300220D2103204B
S1231B80FEF7B3FF002300220E210320FEF7ADFFBDE80050002300220F210320FEF7A5BF7C
S1231BA0002201F0B3BCFEE72DE9F8431F460446786800280D46164646D0FEF7DDFF216E8D
S1231BC0001D721882421DD300F11803994219D28446884238BF8C469A4288BF1A46ACEB5D
S1231BE00101ACEB000005EB0108A2EB0C0920444A4641466830FFF7FBFEFF224946404675
S1231C0001F09EFCFEF7BDFF216E001D884222BF7218031D9A420DD3411A05EB010804224D
S1231C20414604F18000FFF7E3FEFF220421404601F086FC29463B68206E7D683246A847A2
S1231C40206E301820660020BDE8F28330B54B688C689C4206D200F140021B1B14781B197F
S1231C60412B01D3002030BD537814788D68E3180C68645D03F03F03C4548B685B1C8B60F5
S1231C8013785B1C13704C688B68A342ECD3012030BD90F840004A6889681018401A7047BE
S1231CA02DE9F0410F46144698460546FFF7F1FF404505F1400607D239462846FFF7C6FFD9
S1231CC000284DD0002049E000200BE07178695C2154401C7178491C01F03F0171703178DF
S1231CE0491E3170317809B14045EFD3B9687A68914238BF404507D23A68515C2154401CE3
S1231D00B968491CB960F1E7404529D1B26C41462046FEF7EFFDB064069820B1F06842467A
S1231D202146FFF7AAFE079800281CBFF078002805D0B06843462246214601F053FCF0787B
S1231D4038B1F069B1694044F061884224BF0020F07070694044706141F20300BDE8F081A7
S1231D601220B07141F20200F8E72DE9FF41074607F142051446287800074CBF04260826B2
S1231D80002001900090334602AA3846FFF788FF41F20308404549D16878483738B100F0C9
S1231DA048F83868334602AA02A901F01BFC2978090702A80ED541789DF8082042EA012165
S1231DC049BA89B22160C178807840EA012040BA80B218E08278C178120442EA016142780F
S1231DE041EA02219DF80820114321609DF80E209DF80F100079120442EA01619DF80D20A9
S1231E0041EA022108436060687850B92068DFF8381888421CBFDFF83418884201D000F07A
S1231E2008F86068B8600020F860404604B0BDE8F0817868324602A9FFF71FBEF8B5044629
S1231E4004F140070020B87138707870F870787138710D4603F02000B87016464FF0FF3017
S1231E60B864FF22002038627862182104F1680001F066FBFF22042104F1800001F060FB9E
S1231E80FF22042104F1840001F05AFBBD60FE600020C04610B90020C04610B11220B8718D
S1231EA007E00020C04600B11DB10020C04618B116B941F20B00F2BD16B1F868FFF7D3FDFA
S1231EC00020F2BD2DE9FE4F98B0814605A80021002200230EC01998DDF890A005908B46C0
S1231EE01A98069009F1420609F1480741F2030808AC17E0012000F0DBFB404557D100F09E
S1231F00CBFB02903078000702D5029800BA0290B868052824BF0298B861F8680428E9D3CE
S1231F200A20307107981A99884280F0898330791228F7D8DFE810F01500380011015B0106
S1231F40E6011C02CE010F021C0214001C021400DE02810348035E03610381028103E1E7F1
S1231F60DBE7199819994078097851EA002003D1307840F00800307000F080FB404516D179
S1231F800498DFF8CC16B8600020F8600398884208BF0220C5D0002840F0DA813078000713
S1231FA040F1D6810320BCE700F068FB404540F04883B07820B10398DFF89016884241E000
S1231FC03078C10748D57178002945D10398DFF8801688421CBFDFF87C16884223D0DFF89E
S1231FE0781688421CBFDFF8741688421BD0DFF8701688425FD0DFF85016884200F0838044
S1232000DFF86016884213D0DFF85C1688420DD0DFF83816884212D0DFF8501688421CBF1F
S1232020DFF84C16884200F093810DE00E2078E70F203071B86838610020786172E7002020
S1232040C04600285DD12FE01220307103A80020C046002831D03BE2000703982ED540F250
S1232060FE21401A22D04FF20A31401A08D040F2FC51401A0ED0FF3807D0FE3816D01AE068
S1232080DFF8D805039007204BE7DFF8E00503900B2046E7DFF8B40503900020C046002884
S12320A004BF707800282CD10C203AE7DFF8C0050390092035E7122030714BE0DFF894150D
S12320C088421AD0DFF89015884214D0DFF88C158842D8D0DFF87015884210D0DFF86C15D6
S12320E08842DAD0DFF884158842D1D0DFF880158842DED009E0042013E7062011E770789C
S1232100002840F0258110200BE703A80020C046C8B1039809F184018860112030710398E2
S12321200020C04683463078800687D5BBF1000F06D0DBF80410080002D04846884700284B
S12321403FF4F0AEC4E112203071707810B141F2040076E241F2080073E2F868082880F06A
S12321606A8200200190082300F0BBFA4045F3D1E0780006B0F1407F4ED16079217941EA2A
S123218000200290C00704D5307840F00100307002E00020C04630B90020C0460028DCD085
S12321A00298C005D9D41220307141F20A0048E2E078A17841EA002040BA80B24EF250312C
S12321C088429ED1A179E079090441EA0060617940EA01202179084300BAB86104220AA901
S12321E009F18400FFF704FC4FF0FF30F861F8680C2838D2002001900C2300F072FA404541
S12322000ED160789DF8201041EA002040BA00F47F40B0F5007FCBD01220307141F2090078
S12322200FE2F969FF20FEF753FBF8610146FF20FEF74EFBF8610146A078FEF749FB0146B0
S1232240F961E078FEF744FBF861DAF804C0BCF1000F08D0DAF80030B869042208A9E047F0
S1232260B869001DB861F868B968884215D200F00AFA0428C0F0F280F8680C380290042332
S123228000F01EFA4045CBD102981028C9D0FA69042108A8FEF72EFBD6E709F1840109F11A
S12322A084008978C078090441EA006009F18401497840EA012099F88410084300BA02907E
S12322C00299F869C943884240F01F81189901204870B0E1BB68F8689842FAD200F0F0F93B
S12322E040459DD118981C2208A90830FFF790FB189901204870EDE7052030710120F070EA
S12323000020F861F8680828BFF40CAE012001900090082300F0BBF940454CD11899D54AC0
S12323200120087000F0B8F9189948600020806A01689142E0D1A279E179C068120442EA30
S12323400161627941EA0221227911438142D3D012203071BCE00020F8610820E1E5DAF8F1
S12323600030F8692A4608A9E047F8692818F861B868F9688142ACD2451A042D05A94846F8
S123238004D3FFF786FC042804D267E0FFF781FCA84263D3412D28BF402500F074F9A8420D
S12323A002D200F070F90546042D24BFAD08AD0000F08EF9404540F044813079072804D18D
S12323C0DAF808C0BCF1000FC9D1C5F10400042D009007D2014608A8FF22401901F0B0F8AB
S12323E00098451930790A2806D153462A4608A94846FFF7D9FBBBE70528B9D1DAF80C00E8
S12324000028B5D0F869052811D2291807290ED308A9091D081A00900146042209F18400D4
S1232420FFF7E6FA0098FF22042101F089F8DAF80030F869DAF80CC094E73078800635D5BE
S123244009F1840080680020C0465FEA000B2DD13EE0012500F017F9A84204D205A948465A
S1232460FFF7F4FBECE0B868F968451A412D28BF402500F008F9854202D300F004F9054648
S123248000F026F9404525D1307880060ED5BBF1000F1CBFDBF808C0BCF1000F18D053462F
S12324A02A4608A94846E047002813D1F868B968884230780FD28006CBD5BBF1000FC8D0E9
S12324C0DBF810100800C4D0484688470546C1E741F20100B5E080060BD5BBF1000F08D057
S12324E0DBF80C20100004D05146484690470028F0D1A0E0002000F0DBF8404509D109F154
S123250084005D494068884204D01220307141F2050096E00020C04618B918990120C870C5
S123252003E01898C078002848D0F07800281CBFDAF80CB05FEA0B0006D0DAF80030042241
S123254009F184010420D847B86900281CBFDAF80400002832D04FF0FF30029009F1800413
S12325600422214602A8FFF7C3FA50B1FEF709FB38B1DAF80030DAF804B004222146001D58
S1232580D847042209F1680102A8FFF7B1FAA8B1FEF7F2FADAF80030DAF804B0142209F152
S12325A06C010830D847FEF7E7FA09F16801DAF80030DAF804900422001DC847189901208E
S12325C088700D2030713BE0F868102833D200200190102300F085F8404532D100F020FB95
S12325E08021009001910123386809AA022100F0DAFFE9E7012070701DE0B078D8B9019099
S12326000090402300F043F840451AD17868FFF736FA786810AA08A9FFF734FA38B1189919
S12326200020C8701220307141F2060009E018990120C870B070012073E441F2070000E08D
S123264000201BB0BDE8F08FF70A0AF7FC0404FCEB17A603F40A0AF4F50909F5F60808F6C6
S1232660F70909F7F90707F9FA0606FAFD0303FDFE0101FEAD1007B0E320BBDE03AA05A9ED
S12326804846FFF772BB05A94846FFF702BB08AA05A94846FFF704BBA178E078090441EA4A
S12326A00060617840EA01209DF820100843704701900090042308AA05A94846FFF7F0BAF5
S12326C001200190009008AA05A94846FFF7E8BA0120019000902B4608AA05A94846FFF797
S12326E0DFBA0120009008AA05A94846FFF7D8BA10B5B1F5BC7F044602D240F2052010BD2E
S12327004FF4BC71FFF74CFA04F1FC0204F1B40104F12400BDE810400023FFF78FBB10B536
S123272082B00446009104F124002146FFF7CAFB00281CBF41F207018842C4F874010CD137
S1232740A01C017839B1407810B140F2032016BD40F2022016BD40F2012016BD6849694A04
S123276001E021B1491E1369DB07FAD401B9BAE0506001201060106910F0060F05D04107CF
S123278000D5B3E0800700D5B3E000207047F0B513460022002936D0594C5A4D8BB98B425B
S12327A031D250F8046BEE605B1C08262E60264601E036B3761E2F69FF07FAD4002EEED1B7
S12327C01FE0EFF3108672B600230EE02F6907F01907102F08BF2F602F693F07F6D550F810
S12327E0047BEF605B1C10272F608B42F4D306B962B6264601E026B1761E2869C007FAD481
S12328000EB96FF002021046F0BD2DE9F84F3B4F0D4639680446002041F001019B46396095
S12328204FEA92088146AA4602E0B1440AEB860AC14517D204EB89063046FFF78FFF010046
S123284022D1C6F30A00C0F500608608A8EB0900B04238BF06465A4631465046FFF797FF11
S12328600100E2D021682A68914209D02046FFF775FF010004D15A4601212846FFF787FF88
S12328803968490849003960BDE8F28F1B491C4A0B6843F001030B608860012048604869F9
S12328A0400704D508684008400008601EE04869800704D5086840084000086019E002200A
S12328C0486001E022B1521E4869C007FAD422B9086840084000086005E0086840084000CA
S12328E00860002070476FF0020070474FF0FF3070476FF001007047002386E708000E405B
S1232900809698000C000E4010B54A688B68CC680968016002600360046010BD10B5026816
S12329200368046800680A608C604B60C86010BD38B504460D46FFF7E7FF05F1100120468B
S1232940FFF7E2FF05F120012046FFF7DDFF05F130012046BDE83440D6E72DE9F04F91B054
S12329608046894616461C4600F053FE074614B1012C02D003E0002000E0042038600020EF
S12329807860F864786820F44060786000203863786300F053FE04464FF482703D18414661
S12329A02846FFF7B1FF08F110012846FFF7ACFF204600F047FE2048386500254FF4D2709C
S12329C007EB000A0CE000F039FE044659465046FFF7AEFF204600F035FE184838656D1CB3
S12329E0B54211D209EB851B1BF00300EBD0402259466846FEF7FCFF00F020FE04466946F6
S1232A005046FFF795FFE5E700F018FE04464FF480703E1841463046FFF780FF08F1100171
S1232A203046FFF77BFF204600F00CFE384600F0F9FD11B0BDE8F08F888AC801070D810192
S1232A4000281CBF6C21FFF7ABB8704700F1200200231360536031B1012180F86810202240
S1232A600FF2541104E080F8681020220FF22811FEF7CEBF01238CE02DE9F04116000446E3
S1232A8088461BD000F063F8A7B1AE4212D300F059F804F128012046FFF7ECFFA844761BDE
S1232AA0002707E0B509012300F048F808EB8518A6EB8516402EF5D206B155E0BDE8F081FF
S1232AC07CB5044604F120000D4642680168D20042EA51728DF80320C900130E8DF80030F4
S1232AE0160A130C0A0E8DF804208DF801300A0C8DF805208DF802600A0A8DF806208DF831
S1232B000710007800F038F834BFC0F13802C0F178022046FFF7B0FF082269462046FFF7B9
S1232B20ABFF002001E000F02DF894F86810002914BF1C2120218842F5D373BD2A4641469A
S1232B4020460AE7E0192A462830FEF751BF206A00F03F073018B042C7F14005206202D207
S1232B60606A401C6062704732464146E019BDE8F0412830FEF73CBF0FF25C0100F03F000F
S1232B8038287047810854F8211009BA2950001D70470122E1E6000067E6096A85AE67BB05
S1232BA072F36E3C3AF54FA57F520E518C68059BABD9831F19CDE05BD89E05C107D57C360A
S1232BC017DD703039590EF7310BC0FF11155868A78FF964A44FFABE800000000000000027
S1232BE00000000000000000000000000000000000000000000000000000000000000000D1
S1232C000000000000000000000000000000000000000000000000000248704702487047AE
S1232C20024870474A43E00F6A43E00F8642E00F10B54A688B68CC6809680160026003608B
S1232C40046010BD10B502680368046800680A608C604B60C86010BD38B504460D46FFF75B
S1232C60E7FF05F110012046BDE83440E0E738B504460D46FFF7E6FF05F110012046BDE8A6
S1232C803440DFE78C220FF2F87150430844007A70478C220FF2E87150430844407A704776
S1232CA010B500F010F8BDE8104000F10C0106E010B500F008F8BDE8104000F12C01202270
S1232CC01846FEF795BE0B468C240FF2B471604308447047F8B504460D46164600F0AEFC3D
S1232CE007464FF4847029462044FFF7B5FF4FF4867031462044FFF7AFFF384600F0A2FC0B
S1232D00DFF8E8062065012060656069000E00F0010080F00100F2BD2DE9F04F89B00446BF
S1232D2088469246994600F089FC83464FF48270271808F1400100F08AF94FF48670251835
S1232D40514600F025F94FF4887026180AF120013046FFF781FF00F023F900F024F9834667
S1232D60414600F074F94FF4847004EB000A08F1200100F013F908F140013046FFF76CFF14
S1232D8000F00EF9DFF868062065DFF8680600F04BF883464FF48070261809F1400100F091
S1232DA0F4F869465046FFF762FF00F0F9F800F045FC834600F0EBF800F0F2F8DFF83806EA
S1232DC02065DFF838066065DFF8340600F0F3F8054600F03AF900F0DDF8DFF828062065E7
S1232DE0DFF8240600F020F8054649465046FFF73EFF00F0CFF800F021FC054669463846E7
S1232E00FFF72AFF00F0C6F8DFF800062065DFF8000600F009F8044600F0B5F8204600F074
S1232E2011FC09B0BDE8F08F60650120A06500F005BC2DE9F04F99B004468846914600F08B
S1232E40FDFB05464FF48270271800F0FEF800F0A1F8DFF8C0052065DFF8BC056065DFF8F3
S1232E60BC05FFF7E3FF06464FF48070251808A900F002FB00F0E6F800F0E0FB064600F086
S1232E8086F800F0DFF8DFF898052065DFF8940560654FF48670FFF7C9FF82464FF48670C3
S1232EA0261810A93046FFF7E2FE694600F0E4FA504600F0C7FB00F0C1FB824608F1400158
S1232EC000F0C5F8504600F0BDFBDFF85C0520650120606500F0B2FB83464FF4847004EBD4
S1232EE0000A414600F05AF800F05AF8DFF83C052065DFF83C056065DFF8380500F05BF8E8
S1232F00834669465046FFF7A7FE10A93046FFF7A3FE00F045F8DFF820052065DFF81C0598
S1232F206065DFF81C05FFF781FF83464FF4887049462044FFF79BFE00F032F800F07EFB51
S1232F40834600F082F808F1400100F027F808A93046FFF781FE00F023F8DFF8E804206502
S1232F60DFF8E404606500F069FB044609F140012846FFF77CFE00F006F8204600F062FB71
S1232F8019B0BDE8F08F09F1200130466FE64146284661E6284600F055BB314650465BE662
S1232FA0584600F04FBBDFF86C042065DFF89C046065DFF89C04A0650120E06500F03EBBA2
S1232FC02DE9F04105460F461C46904620212046FEF7E6FD0120206000F030FB06464FF404
S1232FE0807041462844FFF737FE4FF4827039462844FFF731FE4FF484702F18214600F0A5
S123300026F800F01FF8DFF84C0428650BE0DFF848042865DFF844046865DFF84404A86520
S1233020DFF84004E8656869C001F0D500F006FB054621463846FFF71AFE2846BDE8F0415A
S123304000F000BB304600F0FDBA08F12001384602E650F8043B934203D007E050F8042B97
S123306022B9091F0129F9DA01207047002070472DE9F04188B004460E4615469846202106
S12330806846FEF78DFD0120009020210E9F3846FEF786FD202107F12000FEF781FD20215D
S12330A007F14000FEF77CFD3046FFF7EBFD00F0A3F800F09CF88C210FF2C43011FB06F15E
S12330C008444068461E00E0761E012E16DB00F03EF8F9D512E0202229463846FEF798FC62
S12330E0202205F1200107F12000FEF791FC2022694607F14000FEF78BFC761E002E23D47B
S12331003A4639462046FFF794FE00F020F8F4D5002220213846FFF79CFF70B100222021F7
S123312007F12000FFF795FF38B10022202107F14000FFF78EFF0028CDD13B462A463946AC
S12331402046FFF7E9FDD8E708B0BDE8F081301106EBD060401158F82010A6EB4010C14087
S1233160C80770472DE9F04104460F4690B016461D463846FFF786FD00F03EF800F037F8A4
S123318069463846FFF78CFD08AB6A4606F140012046FFF715FF00F051FA80464FF482703E
S12331A008A92044FFF758FD4FF4867027183146FFF74DFF4FF4887006F120012044FFF7CD
S12331C04BFD404600F03EFAFFF7EDFE06464FF4807005F120012044FFF749FD29463846F1
S12331E0FFF745FDFFF72EFF10B0BDE8F081002020602063606370470146204600F026BA80
S123320038B50D4604462021FEF7CAFCFFE71F204242295C2244401ED177F9D531BD2DE918
S1233220F04F0F00984618BFB8F1000FB9B00446154603D0429E0EB1012D02DA40F20160B2
S1233240D1E0FFF7D4FF606840F0100060600020FFF71FFDFFF7D0FF606820F4406040F481
S12332600060606009A9606820F4407040F4007060600020FFF71CFD09AA31462046FFF7D3
S123328029FD30B909AA06F120012046FFF722FD10B140F20260A6E0212DA8BF20252021BF
S12332A011A8FEF77DFC002014E02A1A521E01A99208A5F1010C01EB8201ACEB000C3B5C8B
S12332C00A6C4FEACC0C0CF0180C03FA0CF31A430A64401CA842E8DB00F0B0F905464FF44C
S12332E08470271811A93846FFF7B6FCFFF752FE5D48206500F0A2F981464FF48070251885
S123330011A900F0B9F8484600F09CF919AB09AA06F120012046FFF753FE00F08FF98346BE
S12333204FF4827019A92044FFF796FC4FF4887004EB000911A94846FFF78EFC4FF4867072
S123334004EB000AFFF729FEFFF72AFE474820654748606500F072F9834611A94846FFF76B
S123336086FC19A900F088F8FFF71AFE21A8009011AB0FF2581200212046FFF779FE01A86A
S1233380009019AB424600212046FFF771FE21AB21AA00212046FFF7E5FE01AB21AA01A949
S12333A02046FFF7B9FC01AB01AA00212046FFF7D9FE00F043F905460020FFF76AFCFFF764
S12333C01BFF01A93846FFF747FCFFF7E6FDFFF7E1FD28482065234860656069C0014CBF07
S12333E0002040F2046039B0BDE8F08F3035DA10D01482CB1481E11C8CE11C811C84D91C55
S12334008391D11CE014D8141482E11C84D31482D11CE0148AD11C81821CC00C0C0C0100EB
S1233420C00C0C83D91C83D88AD11C83DA0C811482D11C81C80C0C818CE11CD01484E3142F
S123344082D11C01D81483D11CC00C01D91C83D11C81E11C39398401D02484FC1C82FED80D
S12334608B1C81A03938010030D00C0130E11C8430D91C013035DA142846FFF7F8BB0000C0
S12334802000000000010000050C0000FFFFFFFFFFFFFFFFFFFFFFFF000000000000000002
S12334A00000000001000000FFFFFFFF512563FCC2CAB9F3849E17A7ADFAE6BCFFFFFFFFD9
S12334C0FFFFFFFF00000000FFFFFFFF96C298D84539A1F4A033EB2D817D0377F240A46379
S12334E0E5E6BCF847422CE1F2D1176BF551BF376840B6CBCE5E316B5733CE2B169E0F7C7F
S12335004AEBE78E9B7F1AFEE242E34F00B500BF130096469446103928BFA0E80C50FAD852
S12335205FEA417C28BF0CC048BF40F8042BC90728BF20F8022B48BF00F8012B00BDFEE797
S123354062F30F2262F31F42401810F0030308D0C91A1FD3DB0748BF00F8012D28BF20F812
S1233560022D130030B414461546103928BF20E93C00FAD8490728BF20E90C0048BF40F89A
S1233580042D890028BF20F8022D48BF00F8012D30BC7047C91818BF00F8012DCB0728BFD8
S12335A000F8012D7047F8B505460E4617461C4600F0BFF8079A0699284600F0C0F805F12C
S12335C024000021016006750C22394605F13900FEF70EFA05F14500210C01708470210AF5
S12335E04170F1BD10B584B01C460191029200F12801009100F1380300F12402214600F0A2
S1233600BBF81FBD890001EB401000F184400260704780B5FFE7012201210648FFF7F2FFEF
S1233620054802BD0449884203D1002201210148E8E77047B0400E4000000F40EFF310807D
S123364072B6704700B962B67047FEE742685209042941EA421209D9491F022908D9C91E2C
S1233660032903D9091F022902D970474260704742F0100141607047890001EB401000F1AF
S123368084400260704710B54A688B68CC680968016002600360046010BD10B50268036849
S12336A0046800680A608C604B60C86010BD38B5102A04460D460ED101220021FFF7DCFF84
S12336C04FF48870044429462046FFF7DCFF05F11001204606E000220021FFF7CDFF2946F6
S12336E004F12400BDE83440CDE71FB50C4614F0030108D06946FFF7D0FF1022694620461F
S1233700FEF776F91FBD2146FFF7C7FF1FBD1FB5044611F0030008D010226846FEF768F936
S123372069462046FFF7AFFF1FBD2046FFF7ABFF1FBD00281CBF2421FEF732BA704770B509
S123374004000D4618BF002D164602D16FF0210070BD2421FEF724FA802E18BFB6F5807FA7
S123376002D06FF01F0070BD2660F2082946201DFEF73EF9002070BD2DE9FF4F81B0002A64
S123378014BF17680027002400281CBF0F9D002D0AD0DDF84090B9F1000F1EBF002BDDF897
S12337A03880B8F1000F02D16FF0210070E00068802818BFB0F5807F04D06FF01F0067E0CE
S12337C000F069F8029884425ED2002FF8D1FFF720FF0646002070604FF0000B4FF44040AE
S12337E03060FFF72BFF824601980068802801980CBF08221022011D3046FFF758FF049966
S123380006F18400FFF783FF00F050F80298001B0009009014E000F04CF80BF1010BFFF705
S12338200DFF8246291906F1A000FFF770FF09EB040106F18000FFF758FF00F037F8103452
S123384000988345E7D30298001B0FD05FB900F030F8FFF7F3FE8246414606F18000FFF7E3
S123386044FF00F023F800F016F8ECE7FFF7E6FE8246049906F18400FFF737FF00F016F841
S12338803046FFF7CFFE9DE7039800B10760002005B0BDE8F08F285D18F80710484009F886
S12338A00400641C781C00F00F0770475046FFF7C9BE4820B0600520B06030698007FCD47F
S12338C00320B0607047FEE70B48016841F4700101600A48416941F4005141610168890834
S12338E089000160416B490849004163016A21F0805101627047000088ED00E040300E4076
S12339004EF68851CEF20001086840F470000860BFF34F8FBFF36F8F4FF00070E1EE100A71
S12339207047FEE70120C046002801D000F008F80020AFF30080FDF736F900F015F8FEE790
S123394010B5074979441831064C7C44163404E00A68081D114488470146A142F8D110BD8D
S1233960800000009000000000F000B80746384600F002F8FBE70000202109032631182018
S1233980ABBEF9E700F0490200800000C0EA2101C0EA210180B5FFF797FFFDF755F9BDE8DF
S12339A0014000F000B8AFF30080FFF7A9FFFFF7B9FF10B450F8041B79B1026843680244FC
S12339C00830DC0744BFA9F10104E31852F8044B43F8044B091FF9D1ECE710BC70470000C0
S12339E0D3FFFFFF100000009CFFFFFF800000200000000000000000FFFFFFFFFFFFFFFFB2
S1233A00FFFFFFFFFFFFFFFFFFFFFFFFFFFFFFFFFFFFFFFFFFFFFFFFFFFFFFFFFFFFFFFFC2
S1233A20FFFFFFFFFFFFFFFFFFFFFFFFFFFFFFFFFFFFFFFFFFFFFFFFFFFFFFFFFFFFFFFFA2
S1233A40FFFFFFFFFFFFFFFFFFFFFFFFFFFFFFFFFFFFFFFFFFFFFFFFFFFFFFFFFFFFFFFF82
S1233A60FFFFFFFFFFFFFFFFFFFFFFFFFFFFFFFFFFFFFFFFFFFFFFFFFFFFFFFFFFFFFFFF62
S1234000384F002099F1020051020100DDED0200A70A0A010042000004180FAC1163F5000B
S123402000000000000000000000000000000000000000007C0903000000000000000000F4
S12340400000000000000000FFFFFFFFFFFFFFFFFFFFFFFF0070030031560022000000004C
S1234060FFFFFFFFFFFFFFFF10000000000000000000000000000000000000000000000034
S123408000000000E47F0020E47F0020E47F0020384F0020CE210300B2F10200D845002018
S12340A00000000000000400000000000000000000000000000000000000000000000000F8
S12340C00000000000000000000000000000000000000000000000000000000000000000DC
S12340E00000000000000000000000000000000000000000000000000000000000000000BC
S123410000000000000000000000000000000000000000000000000000000000000000009B
S123412000000000000000000000000000000000000000000000000000000000000000007B
S123414000000000000000000000000000000000000000000000000000000000000000005B
S123416000000000000000000000000000000000000000000000000000000000000000003B
S123418000000000000000000000000000000000000000000000000000000000000000001B
S12341A00000000000000000000000000000000000000000000000000000000000000000FB
S12341C00000000000000000000000000000000000000000000000000000000000000000DB
S12341E00000000000000000000000000000000000000000000000000000000000000000BB
S1234200384F002099F1020051020100DDED0200E5ED0200E1ED0200E9ED020000000000CB
S1234220000000000000000000000000DF450000EDED0200000000006B5200008B550000DD
S1234240C55702002DC60200D963000069C2020079C6020033C6020035C602002FC60200AE
S123426029730200D1A8010073700000FDEF0200FDEF0200911E02002D8A0000FDEF02000D
S1234280FDEF0200DFA80100FDEF0200FDEF0200FDEF0200FDEF0200FDEF0200FDEF020010
S12342A0FDEF0200FDEF0200FDEF02007BC6020031C602001D6D0000ABC60200FDEF020009
S12342C0E1F00200FDEF0200103110B57549754A01E021B1491E1369DC07FAD411B96FF026
S12342E0020010BD506001201060106910F0060F09D0410702D54FF0FF3010BD800A10014E
S12343006FF001221033002010BDF0B5044610460B460022002B36D06249624D90B9002635
S12343209E4230D254F8040BE8600827761C2F60084601E028B3401E2F69FF6210200028EB
S1234340EED11EE0EFF3108072B600260EE02F6907F01907102F08BF2F602F693F07F6D501
S12343603C400F7BEF60761C10272F609E42F4D318B962B6A410012869C3422209A410547E
S1234380021046F0BD2DE9F84F464D0C4629680646002041F0010129604FEA92088146A2DD
S12343A0469B4613E0C7F30A07C7F50067BF08A8EB0900B84238BF07465A4639465046FF9C
S12343C0F7A1FF01000CD1B9440AEB870AC14507D206EB89073818127518100BE2D011E0D4
S12343E031682268914209D03014126B14100504D15A460121200E242E84FF29684908493B
S1234400002960BDE8F28F264A136843F001031360014691600121516053691F48590706C0
S1234420D510684008400010603A9003704751698B14254410017047022E100701E020B12C
S1234440401E5169CBDA8330B920120220610E200A00207047002387E70B480168E63016F2
S1234460016046F21A32C2644FF4807141604169CA07FCD40021C1642811011007809698C8
S1234480000C000E4008040070B5044616460D46304600F0AFF8002020703046A847BDE8CD
S12344A0704000F0B0B801223D493E48ECE701223D493E48E8E780B5012000F0C8F93C4865
S12344C000F05DF93B49087001BD80B500F0D0F9012805D037480078BDE8024000F037B92E
S12344E001BDF0B5002400E0641C334D2E88E3B2B3420ED2E7B20C25304B6F433B441E7825
S1234500864201BF5D888D421E799642ECD11846F0BD0020F0BD80B519B900F097F80020B1
S123452002BDB1F1004F02D200F09AF8F7E7022002BDB1F5000F3CBF0902FFF7ECBF022034
S1234540704770B505461E46FFF7CBFF04000ED0284600F08BFC50B1A0683146FFF7DBFFF5
S123456028B905980499A0716171002070BD022070BD1CB500931346049C0194012205E0A3
S12345801CB500931346049C01940022FFF7D9FF16BD80B500230093FFF7F2FF02BD0000D1
S12345A057AC0200845D00204D0502008C5D002074010300707F0020145700201C510020F5
S12345C080B5FFF78EFF20B1806800210170002002BD022002BD0122F2E70022F0E7FEE73A
S12345E00A490B4808600020704700B1702070470020704780B500F00DF8FF2801D1A3201D
S123460002BD002002BD002070477047646A0020201E030080B500F037FCFF2818BF0020C5
S123462002BD002101707047FFF783BF38B54478456800F011FE00F09CF85B1BB3F1004FF4
S123464098BF5550BDE8324000F00CBE10B500F07BF86060042020702046BDE81040E5E7C6
S123466038B504460D4600F012FE28186060012020702046BDE83240D8E710B50446207818
S123468001000CD0042806D000F001FE6168421AB2F1004F01D8002010BD081A10BD4FF03D
S12346A0FF3010BD70B500F04FF8054600F0D4FD064660686FF0004100F02CF840192060F1
S12346C03046BDE8704000F0CDBDF8B504460D46164600F0DCFD002156B1FF22327007E050
S12346E0121AAA4202D2154606B13170491C083422680AB92846F2BD13781F00F6D0042B6D
S123470004D05268831AB3F1004FE9D806B131700020F2BD0022D8E738B500F015F8054679
S12347200EE001780A000AD0042904D04168691AB1F1004F03D804210170616888470834C7
S123474020680028EDD131BD044600F0A0BD10B5FFF7FAFF00F00DF8C01AB0F1004F07D810
S123476054186068FFF7D8FF2046BDE8104099E710BD0C2111FB04F1364A5358704770B557
S1234780354E3649097804467078884204D3E5210FF2CC0000F0CAFD7578681C70700C21B7
S12347A02C4811FB05F1084401214460017200E04D7054F8081B0029FAD1FFF773FF284624
S12347C070BDF8B54FF0FF310C2400916043214D214E284400210172307820B300F0A6FE3C
S12347E028B94FF48F710FF2780000F09FFD00F04EFD002105E0009B9A4288BF1A4600929B
S1234800491C7378CAB29A4211D2C9B214FB01F3EA58871AB7F1004F05D92B44121A1B7AA3
S12348200BB9002AE7D100F08EFE0020F2BD684600F0A2FE10B9684600F045FD0120F2BDCC
S12348400C23044A5843104401210172704702490870704798620020C77F00205E1E030023
S12348606576656E742D636F6E74726F6C2E6300024800787047014908707047737F00204F
S12348807FB5DFF89029DFF8900913680088ADF8060003A9DFF884090568DFF884090088C9
S12348A00B60ADF8020002ACDFF87819DFF878090988ADF804100222002102702560ADF849
S12348C0001003AEDFF864090DF10604DFF86029655C02EB011202AC157036F81130538031
S12348E034F81130938001AC0DF10203655C95715C5C00EBC405956001251DF80140147359
S1234900491C02295573DFDB7FBDDFF81C0900787047DFF81C1901EB0010407B00F0010066
S12349207047412818BF422803D0432818BF442801D10120704700207047F8B51546069A68
S123494004461E4600F039FA60B1042100F000FC070007D02046FFF74DFE3246294620468E
S1234960B84791E0F1BD2DE9FC4714001CBF0A9D002D814688461F461ED0EFB128780107C9
S1234980618820794CBF4022802200F016FA98B1082100F0DDFB824670B10B9E2079FFF727
S12349A029FE019600953B46224641464846D047BDE8F347FFF727BEBDE8F387F8B51646A9
S12349C005461A4600F0F9F9D8B1069C21000BD1022100F0BDFB040013D02846FFF70AFE00
S12349E031462846A0470BE0102100F0B1FB070007D02846FFF7FEFD224631462846B847A6
S1234A0042E0F1BD2DE9F843904606461A4600F0D4F908B9862017E00899002499B920217C
S1234A2000F096FB814670B10B9F0A9C099D3046FFF7E0FD009723462A4641463046C8474E
S1234A400446FFF7E0FD2046BDE8F283F8B50446A5682078FFF7CEFD002611E02868F1B20E
S1234A601422514347182078398800F098FD0121384600F06DFB01001CBF20788847761C5E
S1234A802979F0B28842E9D3BDE8F140FFF7BBBD38B50024DFF890570AE0DFF894072106B2
S1234AA000EB1150427BD10748BFFFF7CFFF641C2978E0B28842F0D331BD5CB585B00A9C2C
S1234AC08DF80800ADF80A108DF80C30ADF80E2000260196ADF8104000960023002201A9BB
S1234AE002A800F082F8019807B050BD7CB5069D96781C462B0008BFD378412E18BF422E0A
S1234B0006D0432E09D19A1E92B201F095F816E05A1ED2B201F076F811E0442EF3D034B992
S1234B202C0004D0D278954201D2892076BD00291A4602D101F08BF901E001F041F90020A4
S1234B4076BD10B5002301E0001D5B1C9CB28C4204D204889442F7D1408810BD002010BD23
S1234B600288B2F57C4FA8BF00F00BB8DFF8C406091A0C2291FBF2F18AB20021DFF8B806C8
S1234B80DFE7DFF8B816401A142290FBF2F292B20021DFF8AC06D4E710B50C460188628874
S1234BA091420DD1037B2279134209D0B1F57C4F04DBFFF7E6FF2189884201D1012010BD9A
S1234BC0002010BD10B514460A88E3889A420AD10288B2F57C4F04DAFFF7C2FF218988420C
S1234BE001D1012010BD002010BD2DE9F74F82B004469A460025002704E08068C1886D1866
S1234C007F1CFFB2DFF820160A78974280F0A480DFF81C06237800EB071002789A42ECD19F
S1234C2081680091407BC107EAD54FF0000804E0B9F80A002D1808F1010800990A795FFA12
S1234C4088F09042DCD20A685FFA88FC142010FB0CFC02EB0C0921464846FFF79DFF002811
S1234C60E6D04FF0000B07E0307910F0300F04BFF0782D180BF1010BB9F808101FFA8BF08C
S1234C808842D8D2D9F804001FFA8BF20C214A438618224631464846FFF794FF0028E3D008
S1234CA027460398344600B104602079810610D5DFF88005002105E00279930644BFC278A1
S1234CC089180C30A042F7D3DFF8780589B2461803E0DFF87415ADB24E19DDF83880049D23
S1234CE0B8F1000F40461BD0019521464846FFF737FF0246238879883878DFF850B500F060
S1234D004AFCF0B12079C1061DD521464846FFF727FF00950346798838782246D8471CE033
S1234D20DDB1214648460196FFF71AFF0246238879883878DFF818B500F02BFC00282E464B
S1234D40E0D17E2009E00199CDF800A0434622463046FFF7CBFE00E0862005B0BDE8F08F93
S1234D60F0B5002414270579E3B2AB4216D20368E6B27E4333441D888D420DD1150004D0CD
S1234D80802A04D11D7B2E0606D51846F0BD402A02D11D7B6E06F8D4641CE4E70020F0BDB1
S1234DA080B5002201E080B5402200F006F800B1012002BD80B58022F7E738B50C46154652
S1234DC000F062F8FF2801D1002032BD05E038B50C461546002100F02FF8DFF8543403EB79
S1234DE000102A4680682146BDE83840B8E74022FFE72DE9F047804689469246FFF7DDFF50
S1234E00002508B9FF2015E00024DFF82464DFF818743978E0B288420BD20001305C4045B2
S1234E2007D052464946FFF7D2FF00B16D1C641CEFE7E8B2BDE8F08770B50022DFF8F03322
S1234E40DFF8E4532E78D4B2B4420BD224011D5D854205D10D0007D01C44647BE50703D41F
S1234E60521CEDE7FF2070BDD0B270BD80B50021FFF7E2FFFF2801D1002002BD00F031F8D3
S1234E80407B00F0010002BD0121D5E7DFF8A0130001085C7047F8B50C46FFF7F5FF0146EF
S1234EA00020FF291FBFDFF8882302EB01118968002915D0002214270D79D3B2AB420ED213
S1234EC00B68D6B27E433344451C1B7B260001D11B0600E05E0648BF2846521CECE7C0B21F
S1234EE0F2BDDFF84C1301EB00107047F8B50C461546FFF7C9FF01460022FF291DD000235D
S1234F004FF0140C01E0521C5B1CDFF8240300EB0116DFB2B0680679B7420ED200681CFBE8
S1234F2007F73844067B15B1760602D4ECE73706EAD5D6B2A642E6D1F2BD0020F2BD0021C5
S1234F4009E010B50446012100F005F82046BDE8104000F0B2BF2DE9F14F88B0894601F03C
S1234F6084F8B149DFF8C8A20A780690002305928DF804300AE00AEB0010017B069881421F
S1234F8014D09DF80400401C8DF804009DF804000599884258DA9DF82020FF2AEBD0104669
S1234FA0FFF772FFFF288DF8040056D0002758E00328ACBFD6F808B006F1080B012000907A
S1234FC000235A46002102A8FFF70FFE5FEA090007D0BDF80A201AF808103346584600F003
S1234FE088F8641C2989A0B2884239D26868A2B20C214A4386183379D906F2D41AF80820CD
S12350008DF808202988ADF80A10307941064CBF802140218DF80C1028463188ADF80E10E7
S12350203146FFF79DFDADF810003179F0784A07BED5D6F808B00328C0DBDBF800B0BDE747
S12350409DF82000FF289CD0B9F1000F04BF9DF8200000F020F801F0D3F809B0BDE8F08F32
S12350607F1C9DF804004FEA00180AF10800F9B250F8080002799142E2D20168FBB214205D
S12350804343CD1840F22D112A898A42A8BF01F0BEF90024A6E73EB5044600F0E6FF054695
S12350A00120FFF7B7FA012C03D0FF2C08BFA8421ED102237F22212101A801F0EBF9212092
S12350C0009040F6053401AB00222146012001F064FA02237F22222101A801F0DBF9212070
S12350E0009001AB40F217122146012001F055FA37BDF8B51D460446287983070E46174623
S123510025D502220021684600F0A1FE04B96C46012E04BF40F605318F4218D1288840B9DF
S12351202879410613D4022322467F21212001F0C5F9288840F21711884208D128794106EA
S123514005D4022322467F21222001F0B7F9F1BD30B5047B012200230C4205D1002030BDD9
S1235160144218BF5B1C5200D5B28D42F8D30069DBB250F8230030BD2DE9F04F0024002825
S1235180487D4FF0010C07D010B94FF0020E09E0012805D1E64605E010B94FF0080E01E013
S12351A04FF0040E0B9D099F0A9EDDF830809B46894692462B46394632460025254800EBB0
S12351C08506378857451AD1F07810EA0E0F16D0B7789F4213D3F77899F80F00FF0601D5B5
S12351E008B90CE058B9A0450FD08C420DDAB0780BF80400641C1688761C1680A4B26D1C20
S1235200292DDBDB6046BDE8F08F4FF0000CF9E70000000050040300DA19030054040300E1
S1235220E2190300DE190300727F002048090300E45D0020040603005C09030080080300AC
S123524058090300645E0020045E0020C1550000BD55000060050300EFF31180602181F38A
S12352601188704780F311887047FEE780B501F032FD01F041FD80B202BD80B501F02BFD6F
S123528001F03AFDFA21B0FBF1F080B202BD80B501F021FDBDE8044001F02EBD80B501F01B
S12352A066FE124800214160001D01F095FB20B141210FF2640000F039F8002002BD0B49E0
S12352C001200870704770B5044682B02268002502B90FE000F002F801200FE0034E044BE6
S12352E0357000950021706801F0F7BB407A0020BF52000000F027F9002076BD01F07AFF1C
S1235300307828B97068214601F09BFC852501E025603570284676BD73797374656D2D749D
S1235320696D65722E63000042DE704738B504460D4602F043FB01F06AF803F0E3F829460A
S1235340204603F0E4F821466E4803F0E3F808B903F005F929462046BDE83440E4E76A480C
S12353602DE9F843694E0168B1654FF42068026A6749F2650B68336649687166426AB2660C
S1235380816AF166C26A3267016B7167806B96F83810B06748074CBF346CF46B03F02EF973
S12353A0002232658442DFF86CE1014624BFAEF12007A742A146716506F19002564BDFF8AF
S12353C05CC118D3A0697064E469B464B56DC5F30805062D13D1604511D398420FD20088B5
S12353E04DF64264A0420AD17068B4685060946040F2017803E000247464B4648146484872
S1235400814238BF0146084670456AD20C68B4F1CD3F08BF091DF6D063E0062C09D1C4B2AB
S1235420002C0CBF0520401E06F17C04C5B244F82510F14520D25EF8041D6145F9D39942A3
S1235440F7D2CC07F5D5002406F17C0555F824708F42E2D0641C062CF8D3DEE7F16F00231D
S123546006F17C0506EB8304D4F8804045F823405B1C042BF6D911600146481EC9B20029D5
S1235480ECD1B06DC0F30800032810D0042811D0052812D0062813D00C2817D0122818D1FD
S12354A020480268910719D540F2025816E040F6012813E040F6022810E040F603280DE01E
S12354C0B8F5206F0AD140F6042807E040F6052804E018B1322838BF40F607284046BDE877
S12354E0F2831149081AF0640021002006F17C04C5B2401CC7B244F82510062FF8D30020CE
S123550097E700000804030004ED00E00000002000E300E0384F0020B2F10200884400002E
S12355209C0000201C200540384F0020EFF31080C00706D4EFF3118060288041C043C00FE2
S1235540704701207047002080F31188704770477047704770477047704770477047704766
S123556070470020704770477047704770477047704770470020704700207047704770477C
S123558070477047704770477047FEE770470120704701207047012070477047704770472B
S12355A000207047002070470020704700207047002070470020704700207047012070472E
S12355C0012070470020704700207047002070470020704700207047704700207047B52059
S12355E0704770477047704701207047034801680878012808BF022070470000646A002008
S12356007047002070474FF6FE72C281012181810161002202700120704770470020704780
S12356200020704701207047704700207047002070470020704700207047002070470020AD
S123564070477047B5207047002070470020704770470020704770470020704700207047AB
S123566070477047704700207047704780B5FFF70BFCFF2805D0022803D2DFF8B816085C3D
S123568002BD002002BDF8B5069F00240025092F064602D300200021F4BDA4460DE0A7EB19
S12356A0000EB6442D021EF8010C45EA1465002110EB04244D410CF1010C5FFA8CF0B84239
S12356C0EDD39D4206D828BF944203D2101B63EB0501F4BDA01A65EB0301F4BD10B5026899
S12356E0DFF8541613880B8054884C8052790A7103681A794A714FF48A53CB8002689379B7
S12357009A06DFF8382644BF4FF48B53CB801378816939B9C088DFF82816088003F0FD0302
S1235720137010BD43F00203137016228169DFF81446204600F044FB0022227010BD10B52C
S1235740DFF80446012121700020FEF74EFFFF20FFF7F5FBFEF757FFFFF7D7F80246012190
S1235760DFF8D00500F073FBDFF8CC35DFF8DC25DFF8DC05522102F0FCFFFEF79CFE03F0D1
S123578018F903F096F900F03BFD03F0ABF903F087FA03F0B1FA03F0D1FC03F0F7FC04F007
S12357A047FC04F047FC04F0B0FC04F00CFD04F081FD04F050FF04F0B7FF05F085FC05F004
S12357C082FE05F0F7FEFFF763F90020207010BD704780B506F037F920B907F067FD08B985
S12357E005F01FFAFFF72DFFBDE80140FFF73ABF10B5044621684879FFF746FBFF281DD0FC
S1235800DFF8501501EB0010217F027B8A4215D1226840881188884206D04FF6FF73994260
S12358200CD1B0F5004F09DA2079022818BF032806D111895079FFF7BFFE08B9002010BD50
S1235840A07B0028204602D007F0B2FD01E007F0D9FD00B1012010BD38B514462278550799
S12358604CBF05220322934201D2002032BD069D049A28602971EA80AC60AB81207800F089
S12358800100A8732178890801F00101E973012120782975C00800F001006875E87B30B13D
S12358A01A46204608F098F8297D891C297505992882287D421C2A75531C205CA874D2B238
S12358C02B75A05CE874A96100F0CFFB2877012032BD2DE9F14F84B00F4692460E9EDDF821
S12358E03C80DFF87454DFF874149B462846202208F0B4F80295CDF8048000965B46049802
S123590052463946FFF7A8FF00240028DFF8509465D0C9F80050A87CDFF848140870284645
S1235920FFF7DCFE284600F0C9FA30BBB8F1000F25D1042F18BF052F03D0022F18BF032F8E
S123594001D1012200E000222868E98801910121438800930388E87C00F0FFF898B128688A
S1235960817988060FD4DFF80044012121700022284600F0B2F80020207001242FE098F84C
S1235980140081072BD528684179FF2923D10026DFF8A483FEF7B9FFF1B281421FD2F0B237
S12359A0FFF774FA0746F0B2FEF7B3FF88B1286841883846FFF7F4F958B12846FFF78EFEFD
S12359C02868477188F804702846FFF711FF00B10124761CDEE72846FFF70AFF044607F038
S12359E077FF16220021DFF85C0300F030FA0020C9F8000005B02046BDE8F08FDFF86C130E
S1235A000878401C0870FFE700F07F00704780B1DFF85C130978012904D1018841F0400130
S1235A2001807047022904D102884FF6BF710A400280704778B1DFF83C130A78012A04D1D7
S1235A40DFF8342313780B7001E0022A03D1017841F0100101707047FEB5B84D04462878A8
S1235A60C10701D50020FEBDB94EB34F3046FFF7E1FFB81DFFF7CBFFBA48317800784A074B
S1235A804CBFF0707070B1482A780188900708D53246AC4808F0B9F9297801F0FD012970E0
S1235AA0FEBDA74800884FF6FC73984208DA0B460146019400963A46002008F043FBFEBDEC
S1235AC00A4600943346394608F011FBFEBD0020C2E70146A2480068002270B504460E46E0
S1235AE02079002818BF012815460BD1A0680178CA0601D5300005D0A07B002804BFE07C1C
S1235B000B2801D1002070BD904A00211180607DE17B00280CBF0820002011B907F0EFFE81
S1235B2006E040F0040007F0EAFE208A07F0F6FEA07C07F0E4FE0B2007F0E1FEE07C07F08A
S1235B40DEFE304607F0DBFE2046FFF7C7FD2846BDE8704080E70022BFE770B50446184640
S1235B60864B814E1D78012D01D0337813B10020307070BD0B0002D10AB1002070BD35B1C5
S1235B80049D0A4623462946FFF70AFD00B1012070BD000038B5D2885224950648BF492470
S1235BA0550548BF083C150548BF083C1204034648BFA41E0846032B4FF6FD710ED8DFE8D3
S1235BC003F00902060BC0B208F0CFFC02E0C0B208F0FDFE014601E0641EE4B20846FFF7B2
S1235BE0F7FC241AE0B232BD42540844120A427070470844110A0270130C120E41708370CC
S1235C00C270704770B505460C00164608BF002003D02178FF2902D1FF20287070BD204627
S1235C2007F0FCFE864288BF06463246611C681C00F0C6F82E7070BD70B50C00054616464A
S1235C4003D100206870297070BD2078FF2804BF6078FF2802D12870687070BD204607F060
S1235C60E2FE864288BF06463246A11CA81C00F0A7F82E70360A6E7070BD2DE9F041541EBB
S1235C800BB3042A46DC0023002698465FFA88F5954225D2651B002814BF10F805C04FF0A0
S1235CA0000C571EA7EB08074D5DFF000CFA07FC05FA07F74CEA03033E4308F10108E5E784
S1235CC0AE4224DB5B1CDDB2954223D2651B00280CBF0026465D4D5DB542F1DA01201AE03C
S1235CE0042A10DAD5000120D2006D1E00FA02F2524243FA05F1CC0748BF134346FA05F01B
S1235D00C00748BF16439E42E8DBB34202DA4FF0FF3000E00020BDE8F0810021184A01E0FC
S1235D20891CC9B2535C8342FAD350184078704700000000607F0020046A0020C27F002039
S1235D40547F002060770020C37F0020567F0020106A0020E45D00203C770020781903009C
S1235D605C77002065570020BE7F002066570020BF7F0020C07F0020C17F0020645700201E
S1235D8098190300283808288041C00F704710F0E00011D0802806D0A02806D0C02806D0D9
S1235DA0E02806D007E01C2070471D2070471E2070471F207047FF20704700F01F007047AC
S1235DC070B5814224D210441144401E491E10E011F8013900F80139121F11F8014900F892
S1235DE0014911F8015900F8015911F8016900F8016993B2042BEBDA93B2002B1EBF11F83C
S1235E00013900F80139521EF6D170BD00F00DF893B2042BFADA93B2002B1EBF11F8013BDF
S1235E2000F8013B521EF6D170BD11F8013B00F8013B121F11F8014B00F8014B11F8015B1E
S1235E4000F8015B11F8016B00F8016B7047130003D00A46194608F063BF704710B50346E6
S1235E6000E0521E90B218B100F00FF8F9D0001B10BD10B5034600E0521E90B220B100F0BA
S1235E8004F8F9D0001B40B210BD13F8010B11F8014BA042704780B508F075FFFFF74FFC78
S1235EA0BDE8014008F084BF80B5FFF795FBFFF78FFCBDE8014004F09DB87047FFF7B7BB33
S1235EC0FFF7B9BB3EB5069D079C0194009503F0ABFC3EBD38B504460D46FFF7C6FB2946AC
S1235EE0204608F07CFF29462046BDE8344009F030B8FFF7A2BBFFF7ACBB30B4002513E04A
S1235F0050F8042BD30744BFA9F101039A18091F042942F8045BFAD213468C0744BF15809B
S1235F209B1CC90748BF1D7050F8041B0029E7D130BC704710B57448744C0068206060606E
S1235F4048220021FFF783FF71482168007808704FF6FF71206800224180027300202268C9
S1235F6050730B202268907314202268D0734FF6FE7220680282418209F034F821680876F1
S1235F8009F030F82168487609F02CF821688876604821680078C8765F492068096840F831
S1235FA0281F5E49097801715D4821680068086310BD10B501F01CFB544C6168897B88422A
S1235FC003D0084601F034FA50B901F015FB0146606890F90F00814204D001F01CFB08B174
S1235FE0012010BD6068008A01F036FF6068408A01F04AFF6068007B012818BF002001F017
S123600016FF002010BD10B5464C0020207009F0CFFC20B92046BDE81040FEF717BB67E06D
S123602080B5002000F015F828B1002000F005F808B1002002BDFF2002BD34480068407B0F
S123604002281CBF1128432801D101207047002070472E480068007B01281CBF0228032860
S123606001D1012070470020704700207047002070472D4908707047704700207047012099
S1236080704770470020704700207047704770470020704780B50020FFF7CFFF18B1BDE814
S12360A002400020D5E702BD80B50020FFF7C5FF30B116480068007B032801DA002002BDE9
S12360C0FF2002BD10B5040005D04FF4A5710FF21410FFF72BF91448007808B9702010BDB6
S12360E009480068482111FB04F1084407494860BDE810405DE705484068008A704703487B
S12361004068408A70470000AC520020CC7700205457002055570020B05200204A57002057
S1236120B4520020BC770020685700207047002070470020704709F0F3B97047002818BF43
S123614009F08EBC704709F0BABF09F0A9BE82B08DF80010DDE9002311461A4602B002F064
S1236160CABC32B586B004468DF8042007F042F80546204607F04CF880F001010D420DD0CA
S1236180BDF8180007F0FDF88DF80000FF2804BF00208DF80000CDF808D01AE0294308BF64
S12361A006A815D0054214D0BDF8180007F0E9F88DF80000FF2804BF00208DF800009DF8CF
S12361C000008DF80C00BDF81800ADF80E0003A80290DDE901010A460146204602F08BFC2F
S12361E007B030BD656D6265722D6D756C74692D6E6574776F726B2D737475622E630000E1
S123620018B5B7B02FA8202109F05CFF26A8242109F058FF6748018820237F222FA809F08B
S123622097FF002400202FA9095CFF2903D026AA0244641C5170401C2028F4DBE0B238B103
S1236240422000908DF8984026AB042200F0C0F81EA8202109F036FF15A8242109F032FFEB
S12362605548018820237F221EA809F071FF002000211EAA525CFF2A03D015AB0B44401CC3
S12362805A70491C2029F4DBC1B239B18DF8540015AB42200090052200F09AF811A8102138
S12362A009F010FF0CA8142109F00CFF4348018810237F2211A809F04BFF0020002111AA05
S12362C0525CFF2A03D00CAB0B44401C5A70491C1029F4DBC1B239B18DF830000CAB42204C
S12362E00090062200F074F8FF208DF804000123334801887F2201A809F02AFF9DF80400B1
S1236300FF2805D02021009101AB032200F060F808A8102109F0D6FE03A8142109F0D2FE3B
S12363202848018810237F2208A809F011FF0020002108AA525CFF2A03D003AB0B44401CDD
S12363405A70491C1029F4DBC1B239B18DF80C0003AB412000900A2200F03AF81A4801883C
S12363604FF6FF74ADF8084002237F2202A809F0EFFEBDF80800A04205D03021009102AB1B
S1236380082200F025F811480188ADF8064002237F220DF1060009F0DBFEBDF80600A042BC
S12363A006D0302100910DF10603092200F010F838B010BD301E0300321E0300341E030049
S12363C0361E0300381E03003A1E03003C1E03000021012000F0E1B809F03ABF10B50121AD
S12363E0154809F0E3FF042107200AF00BFB13481349144B016004221A600224124A4462D6
S123640004211160836A43F00203836210BD0B480AF048BBA52806D108480068C10702D5C0
S12364200A4A0020106070470448016811F0010018BF01207047000000050A0000200540E3
S12364400108030080E200E000E100E00000A4421CB5DFF8CC400121217000200AF02EFB99
S123646038B100200AF02AFB18B100202070492016BD02237F220021684600F00BF8BDF8FE
S12364800000B0F57F7F03D000212170072016BD002016BD38B5B1F5807F09DADFF88050C7
S12364A02C7854B101B0BDE83040C9B20AF024BF01B0BDE8304009F04BBE31BD2DE9F04114
S12364C0B0F5807F04460D461646984618DADFF850100878D0B1DFF85070387828B14FF4B0
S12364E0D371DFF84000FEF721FF0121397043462A463146E0B20BF06DFA0020387005E04C
S123650042463146BDE8F04109F043BEBDE8F081DFF80C201178002918BF0BF0B3BB7047E6
S1236520B77F002044190300B87F00202DE9F84785B00F9F109D0E9C0295019706468A4670
S1236540904699460094FFF722F8010003D0022803D002D310E001200EE00CBF012000202D
S12365600021049103900295019700944B4642465146304600F00EF906B0BDE8F087F0B577
S123658085B00A9D0B9C00F021F8009617E078B585B000F00BF8802304E078B585B000F0B0
S12365A005F8402300F0F6F806B070BD0A9C0193002501260495039602940095704700F02C
S12365C0E9F805B0F0BD0A9D0B9C00930026012704960397029401957047F0B585B001272C
S12365E004970A9D0B9E0C9C00270397029401960095E4E77FB5099C089D0A9E0294039661
S1236600002401950094FFE700F076F904B070BD2DE9F84F84B090461C46DDF83890054651
S12366208A4622460026ADF80060FEF7C6FB0700B3468DF80450ADF806A08DF80840ADF8A7
S12366400A80ADF80C904FD001A9FEF7A5FA00284AD0ADF80280DDF83C90DDF840A0BDF89A
S12366600080002415E0B1B249450FD207F056F9A87807F044F95FEA0A0006D02879C1077F
S123668054BF0520072007F03AF9761C08F10108641C3989A0B288421ED27868A2B20C212A
S12366A04A433B888518B3F57C4F09DA2888ADF80A0001AA29463846FEF784FA0028E7D04A
S12366C02888BDF802108842CDD20BF1010BDDE7002005B0BDE8F08F1FFA8BF111FA86F0FB
S12366E01FFA88F18842F3D10120F2E7F8B596B015461D9C042C3FDD04AE039641271C9AC0
S1236700029705AE019600922A4600F0F5F8060034D19DF81000412818BF422804D105A8D7
S123672007F07CF9461C0BE0432818BF442804D105A807F078F9861C02E00BF099FB0646A5
S1236740F6B2301D844217DB284607F0E7F8002007F0D5F89DF810000C4C07F0D0F82088FC
S12367603118522908DA0A4B324605A91844FFF727FB20883618268017B0F0BD284607F00B
S1236780CDF8304607F0BBF8F6E70000567F0020106A00202DE9F84F88B00546129C894647
S12367A092469846002004908DF81450ADF816908DF81880ADF81AA0ADF81C400090002307
S12367C0002204A905A8FEF710FA049808B9862082E0159860B904999DF850008A789042B9
S12367E018BF8D2078D10979C80758BF882073D504980179139E480726D504998868416829
S12368000498029181688868049901908878FFF7B9FA83460498C1788DF8001003290A46E6
S12368205B4631462ADA02A8FFF727FA07469DF800205B46314601A8FFF71FFA012F1CBF9A
S12368404FF0FF31884228D01698002843D100F046F8FEF7EAFE01003ED100F040F8FEF7E1
S1236860D1F8010038D10120009000233246002105A8FEF7BAF9010011D02DE00298FFF700
S1236880FCF9012809D09DF8002001985B463146FFF7F3F910F1010FD6D187201CE0049BBB
S12368A04A4629463046FEF724FC0296009443469DF85000019052464946284604F0C0F9DD
S12368C000F00DF8FEF7B0FE00944346524649462846FEF773F8002009B0BDE8F08F039674
S12368E043460498C1789DF850000291019000945246494628467047F0B585B00C461546C6
S123690019460A9A0B9E0C9B002701978DF80800ADF80A408DF80C10ADF80E50ADF810206C
S12369200097324601A902A8FEF75FF9070004D10D9810B101998A78027032462946204606
S12369400BF0F1FA384605B0F0BDF0B40246106895681318506803EB5004C0071DD54D449D
S12369601BE013F8017B05F8017B491EF9D1A0B1B60813F8011B06F00306032E08BF13F8AF
S1236980016B01EB06214942801C294405D011F8016B05F8016B401EF9D1A3420ED013F837
S12369A0016B16F0030104BF13F8011BC91C30090F28DAD113F8010B0F30D6E7F0BC02F1C1
S12369C00C007047012200F01F01DFF830358A40400943F820207047F8B50446FEF73CFC18
S12369E0DFF81C35002600250146282203F11E0702FB06FC17F80C0010B1761C042EF7DB05
S1236A00042E08BFDFF8FC5408D02CB11E33724301209854266001E0DFF8EC540846FEF7C9
S1236A2021FC2846F2BD38B5DFF8E8040178012901D1002032BD012202700121DFF8D8047A
S1236A40DFF8D854DFF8D84409F0B0FC0621DFF8D40409F0B7FD092028710121DFF8C8048D
S1236A6009F0A4FC01216971A9700020287142F27F51E16328460BF0A5FADFF8B01401209F
S1236A800BF088FAE069C00AC002E06140F2FF71A161002020601D20FFF794FFDFF89014DA
S1236AA04FF000500860A021E269DFF8540442F00102E26109F006FBDFF87814DFF8783448
S1236AC0002008701870DFF87414DFF8743408601860DFF87014086032BD2DE9FF4705467B
S1236AE000200290042D884616461C4628BFDFF85C040ED2FEF7B0FB2822DFF804140190BB
S1236B006A438F18B87F28B90198FEF7ABFBDFF840046FE022460C9C2EB9100066D02146C3
S1236B202846904762E08DF800800021DFF8F053DFF8D833D5F80080DFF8D403BA61E3FBB4
S1236B4006011A4600F0D5F8C7E902019DF8001001290CD14FF47A71024671434FF47A7057
S1236B60A0FB0269881B38614FF4FA707861D7E90201421C61F1FF33C7E900234FF0010C85
S1236B8087F81CC09DF80000DFF8A813F8773C62087801282AD0DFF8A463306810F1010F38
S1236BA002D03168491C3160DFF88CA3DFF8A4939AF8000008BBC9F800800421A961002374
S1236BC0D7E9000199426FF0640201D8904200D310464044E864E86940F00400E8618AF85C
S1236BE000C0306810B13168491E31600198FEF739FB002004B0BDE8F08730680128F0D1B3
S1236C0000213977029C00F0C3F8A8EB000000F0C6F800F02DF90CB901203877404600F0F4
S1236C2037F9D5F80080E96C9AF80000641C0028D7D0D9F80000091AA8EB00008142E2D39E
S1236C40CFE72DE9F0410446042C28BFDFF8FC0238D25FEA010808BFDFF8AC0232D0FEF75E
S1236C60FBFA00F031F821B9FEF7FCFADFF8E00228E0117F21B9FEF7F5FADFF8DC0221E078
S1236C80D2E90045DFF89812DFF8C8220E681768FEF7E8FAF71B002300219D42DFF8700264
S1236CA001D8BC4209D3E41B9D41DFF86062A6FB042306FB05331018594100F019F8C8F823
S1236CC000000020BDE8F0812822DFF8343254431A19917F704770B5994E00233468904ABD
S1236CE0126830688442F9D1981844EB030170BD864A00230BF094B970B500F009F802FB90
S1236D000155A01945EB0301BDE870400BF088B97E4A7F4E0023A2FB004570472DE9F047FD
S1236D20FEF79AFA7E4D8246E8692E69064026F005007107A8611ED57E4FDFF8FC81DFF87E
S1236D401492012038702C6800F022F8201A00F026F800F08DF8204600F09AF82C68E96C94
S1236D6098F8000028B1D9F80000091A201A8142EAD300203870F10705D50120A86170487C
S1236D800168491C01605046BDE8F047FEF76ABAE86920F00400E861D9F8000070472DE9E9
S1236DA0F04900270646BB4628215548794300EB010898F81C0088F81DB0012853D1D8E985
S1236DC000018B4508D828BF864205D2801B61EB0B01C8E9000146E098F81F0010B988F8B5
S1236DE01CB03AE0D8E90001D8E90223301AD8E902456BEB01010BF013F9A21A65EB03033E
S1236E00C8E90023D8F8100000280FDDD8F81400D8F810100818B0F57A7FC8F814001CD351
S1236E20D8E90001421C61F1FF330EE0D8F81410D8F81000081AB0F57A7FC8F814000CD375
S1236E40D8E90001421E61F10003C8E90023D8F81440A4F57A74C8F81440D8F8180010B17B
S1236E60012188F81D107F1C042F9DDBBDE8F08910B500242822224962430A44507F18B1B2
S1236E80116A926920469047641C042CF2DB10BDF0B54FF0FF3213460021194C28254D4320
S1236EA06619377F012F08D12544D5E900679F4203D82EBF964232463B46491C0429EDDB2E
S1236EC000214FF0FF34A34208BFA24212D08B426FF0640601D8B24200D332461D491A4B30
S1236EE0086004241C60101858630121586840F00400586010480170F0BD000080E200E019
S1236F00685C0020011000F0041000F000A60E0000530700AF7F002000050A00EC530020BA
S1236F200820044005002200A0091400F853002000E100E0AD7F0020AE7F0020446B002069
S1236F40486B00204C6B002020200440021000F0031000F0406B0020051000F0012200F017
S1236F601F01514B8A40400943F820207047F0B587B003A84D49102206F070FD6C46002583
S1236F800026002784E8E00002208DF8060001214748484C09F00AFA4FF6FF70E0616A46C0
S1236FA0002120460BF0A2F98DF80E500126424D03A920460BF04CF9404809F027FA9DF88E
S1236FC00E1006FA01F2491C8DF80E10B0FBF2F0C9B20B29286002D239498842E8D2394875
S1236FE0394E09F013FA2D68384AB6FBF0F638480021E6FB050100230BF012F8354D3649A1
S123700028600F70A06920F01000A0610A20FFF7A5FF32494FF48060086007B00020F0BDED
